:020000040800F2
:1000000000000120050300080B030008110300088D
:1000100033030008390300085B03000800000000F8
:100020000000000000000000000000007D03000848
:100030008303000800000000890300088F03000804
:10004000AD030008AD030008AD030008AD030008D0
:10005000AD030008AD030008AD030008AD030008C0
:10006000AD030008AD030008AD030008AD030008B0
:10007000AD030008AD030008AD030008AD030008A0
:10008000AD030008AD030008AD0300080000000048
:10009000000000000000000000000000AD030008A8
:1000A000AD030008AD030008AD030008AD03000870
:1000B000AD030008AD030008AD030008AD03000860
:1000C000AD030008AD030008AD030008AD03000850
:1000D000AD030008AD030008AD03000800000000F8
:1000E000AD030008AD030008AD03000800000000E8
:1000F000000000000000000000000000AD03000848
:1001000000000000AD030008AD030008AD030008C7
:1001100000000000000000000000000000000000DF
:10012000AD030008AD030008AD030008AD030008EF
:10013000AD03000800000000000000000000000007
:10014000000000000000000000000000AD030008F7
:10015000AD030008AD030008AD030008AD030008BF
:10016000AD030008AD03000800000000000000001F
:10017000000000000000000000000000000000007F
:1001800000000000AD0300080000000000000000B7
:10019000AD03000880B596B000AF00F037F94F4BC3
:1001A0007B6524E07B6D1A1D7A651B683B647B6D63
:1001B0001A1D7A651B68FB637B6D1A1D7A651B68C7
:1001C000BB633B6C7B63FB6B3B63BB6BFB623B6B5F
:1001D000BB6207E07A6B131D7B63BB6A191DB962B2
:1001E00012681A60FA6ABB6A9A42F3D800BF7B6D44
:1001F0003B4A9342D6D33B4B3B651AE03B6D1A1DFD
:100200003A651B68BB643B6D1A1D3A651B687B64CD
:10021000BB6C7B627B6C3B627B6AFB6104E0FB69CD
:100220001A1DFA6100221A603A6AFB699A42F6D8EE
:1002300000BF3B6D2C4A9342E0D300F0F5F83A1D25
:1002400007F108031146184600F0CEF8274A284B5C
:10025000D31A9B103B610023FB6007E0244AFB6834
:1002600052F823309847FB680133FB603A69FB681A
:100270009A42F3DC1F4A204BD31A9B103B610023A8
:10028000FB6007E01C4AFB6852F823309847FB6884
:100290000133FB603A69FB689A42F3DC00BFBB683C
:1002A0007A681146184600F06BF9F864134A144B4B
:1002B000D31A9B10BB61BB697B6108E07B69013B82
:1002C0000F4A52F8233098477B69013B7B617B6979
:1002D000002BF3DC00BFF86C00F080F8B4030008DA
:1002E000CC030008CC030008DC030008DC03000892
:1002F000DC030008DC030008DC030008DC03000862
:10030000DC0300082548004700BF80B400AFFEE7CB
:100310001EF0040F0CBFEFF30880EFF30980714665
:100320001F4A104700BF80B483B000AF78603960C7
:10033000FEE780B400AFFEE71EF0040F0CBFEFF342
:100340000880EFF309807146164A104700BF80B459
:1003500083B000AF78603960FEE71EF0040F0CBF79
:10036000EFF30880EFF3098071460F4A104700BF92
:1003700080B483B000AF78603960FEE780B400AF2E
:10038000FEE780B400AFFEE780B400AFFEE780B4C4
:1003900000AF00BFBD4680BC70470000950100085B
:1003A000270300084F0300087103000880B400AF62
:0203B000FEE766
:1003B400B80E00080000002010000020B80E00084D
:1003C40000000010000000101000002014000020A5
:0803D400000000100000001001
:1003DC0080B582B000AF786000F03CF880B483B098
:1003EC0000AF786039607B6801221A603B68034A71
:1003FC001A6000BF0C37BD4680BC7047000000205F
:10040C0080B500AF00F02AF8024B034A9A6000BF97
:10041C0080BD00BF00ED00E00000000880B500AF1B
:10042C0000F028F800BF80BD80B400AFBFF34F8F41
:10043C0000BF064BDB6803F4E0620449044B134332
:10044C00CB60BFF34F8F00BF00BFFDE700ED00E0B6
:10045C000400FA0580B500AFFFF7E6FF80B400AFEB
:10046C00034B4FF000629A6000BFBD4680BC7047E2
:10047C0000ED00E080B487B000AF00233B610023A7
:10048C007B610223FB600023BB6002237B60344B47
:10049C009B6803F00C033B613B69082B11D03B6953
:1004AC00082B44D83B69002B03D03B69042B04D0A8
:1004BC003DE02C4B2C4A1A603DE02A4B2B4A1A602B
:1004CC0039E0274B5B689B0D03F00103BB60244BA9
:1004DC005B6803F03F037B60BB68002B0CD0234AA6
:1004EC007B68B2FBF3F31E4A52689209C2F308020E
:1004FC0002FB03F37B610BE01B4A7B68B2FBF3F35B
:10050C00174A52689209C2F3080202FB03F37B619B
:10051C00134B5B681B0C03F0030301335B00FB60A4
:10052C007A69FB68B2FBF3F30E4A136003E00D4BE0
:10053C000D4A1A6000BF0A4B9B681B0903F00F039E
:10054C000B4AD35C3B61074B1A683B6922FA03F3F5
:10055C00044A136000BF1C37BD4680BC704700BF07
:10056C0000380240080000200024F40000127A0039
:10057C00A80E000880B584B002AF00F0A5F90020E9
:10058C0000F0B0F900230093002301220021412048
:10059C0000F0FCF9002300930023012201214120EB
:1005AC0000F0F4F9002300930023012202214120E2
:1005BC0000F0ECF9022300930023002204214120D7
:1005CC0000F0E4F9022300930023002205214120CE
:1005DC0000F0DCF90023FB700023FB710023BB71DE
:1005EC000023BB7000237B7100233B71042141204D
:1005FC0000F0FAFB0346FB70FB78002B04D1FB796F
:10060C00012B01D10123BB71274800F04FF8FB7877
:10061C00FB710521412000F0E7FB0346BB70BB7862
:10062C00002B04D17B79012B01D101233B711E4896
:10063C0000F03CF8BB787B71BB79002B18D000F034
:10064C0049F80346002B04D000F0C2F80023BB711C
:10065C00CCE700F04FF80346002B04D000F078F8FC
:10066C000023BB71C2E700F0F9F80023BB71BDE7B2
:10067C003B79002BBAD000F03DF80346002B04D098
:10068C0000F048F800233B71B0E700F023F8034674
:10069C00002B04D100F09CF800233B71A6E700F07E
:1006AC00B5F800233B71A1E7A086010080B485B0AA
:1006BC0000AF78600023FB6002E0FB680133FB6055
:1006CC00FA687B689A42F8D300BF00BF1437BD4666
:1006DC0080BC704780B400AF054B1B78002B01D059
:1006EC00012300E000231846BD4680BC704700BFC4
:1006FC001100002080B400AF054B1B78002B01D0FB
:10070C00012300E000231846BD4680BC704700BFA3
:10071C000C00002080B500AF0B4B01221A700B4B64
:10072C0000221A7000220021412000F085FA0022DC
:10073C000121412000F080FA00220221412000F02A
:10074C007BFA00BF80BD00BF0C0000201100002010
:10075C0080B582B000AF1A4B00221A70194B0022E0
:10076C001A7001220021412000F066FA0023FB716F
:10077C0012E001220121412000F05EFA1248FFF73D
:10078C0095FF00220121412000F056FA0E48FFF798
:10079C008DFFFB790133FB71FB79002BE9D0012232
:1007AC000221412000F048FA0848FFF77FFF0022A1
:1007BC000221412000F040FA00BF0837BD4680BD41
:1007CC000C0000201100002020A1070080841E00D6
:1007DC0080B500AF0B4B00221A700B4B01221A7024
:1007EC0000220021412000F027FA002201214120A3
:1007FC0000F022FA01220221412000F01DFA00BF74
:10080C0080BD00BF0C0000201100002080B500AF9F
:10081C000F4B00221A700F4B00221A70002200217D
:10082C00412000F009FA00220121412000F004FAD5
:10083C0001220221412000F0FFF90748FFF736FFA3
:10084C0000220221412000F0F7F900BF80BD00BF5B
:10085C000C0000201100002040420F0080B582B037
:10086C0000AF164B01221A70154B00221A70002291
:10087C000021412000F0E0F90023FB7112E001227D
:10088C000121412000F0D8F90E48FFF70FFF00229C
:10089C000121412000F0D0F90A48FFF707FFFB794E
:1008AC000133FB71FB79012BE9D900220221412094
:1008BC0000F0C2F900BF0837BD4680BD0C00002017
:1008CC001100002020A1070080B400AF044B1B686E
:1008DC00034A43F00103136000BFBD4680BC704760
:1008EC000038024080B485B000AF0346FB71FB7941
:1008FC005B09FB73FB7903F01F03BB73FB7B032BBF
:10090C0036D801A252F823F0250900083B0900084B
:10091C005109000867090008184B1B68BA7B0121B4
:10092C0001FA02F21146154A0B43136021E0144BF5
:10093C001B68BA7B012101FA02F21146104A0B43E3
:10094C00136016E00F4B1B68BA7B012101FA02F20F
:10095C0011460C4A0B4313600BE00B4B1B68BA7B24
:10096C00012101FA02F21146074A0B43136000E021
:10097C0000BF00BF1437BD4680BC70473038024002
:10098C0034380240403802404438024090B482B0BF
:10099C0000AF0446084611461A462346FB7103462F
:1009AC00BB710B467B7113463B71FB79413B032BAF
:1009BC0000F2248101A252F823F000BFD9090008EB
:1009CC00650A0008F10A00087D0B00088E4B1B68B5
:1009DC00BA795200032101FA02F2D24311468A4A33
:1009EC000B401360884B1B687979BA79520001FA75
:1009FC0002F21146844A0B4313607B79012B14D10C
:100A0C00824B1B68BA79012101FA02F2D2431146DA
:100A1C007E4A0B4013607D4B1B683979BA7901FA19
:100A2C0002F21146794A0B431360794B1B68BA7971
:100A3C005200032101FA02F2D2431146744A0B40D0
:100A4C001360734B1B68397CBA7901FA02F21146B8
:100A5C006F4A0B431360D2E06E4B1B68BA7952009D
:100A6C00032101FA02F2D24311466A4A0B40136089
:100A7C00684B1B687979BA79520001FA02F2114677
:100A8C00644A0B4313607B79012B14D1624B1B68B6
:100A9C00BA79012101FA02F2D24311465E4A0B40A7
:100AAC0013605D4B1B683979BA7901FA02F2114671
:100ABC00594A0B431360594B1B68BA7952000321F6
:100ACC0001FA02F2D2431146544A0B401360534BC5
:100ADC001B68397CBA7901FA02F211464F4A0B4372
:100AEC0013608CE04E4B1B68BA795200032101FA5B
:100AFC0002F2D24311464A4A0B401360484B1B6822
:100B0C007979BA79520001FA02F21146444A0B4340
:100B1C0013607B79012B14D1424B1B68BA790121EC
:100B2C0001FA02F2D24311463E4A0B4013603D4B90
:100B3C001B683979BA7901FA02F21146394A0B432A
:100B4C001360394B1B68BA795200032101FA02F287
:100B5C00D2431146344A0B401360334B1B68397C2B
:100B6C00BA7901FA02F211462F4A0B43136046E0A0
:100B7C002E4B1B68BA795200032101FA02F2D243C0
:100B8C0011462A4A0B401360284B1B687979BA79B5
:100B9C00520001FA02F21146244A0B4313607B798E
:100BAC00012B14D1224B1B68BA79012101FA02F2F4
:100BBC00D24311461E4A0B4013601D4B1B683979FA
:100BCC00BA7901FA02F21146194A0B431360194B18
:100BDC001B68BA795200032101FA02F2D243114682
:100BEC00144A0B401360134B1B68397CBA7901FA19
:100BFC0002F211460F4A0B43136000E000BF00BF26
:100C0C000837BD4690BC704700000240040002400B
:100C1C000C00024000040240040402400C04024098
:100C2C0000080240040802400C080240000C02407C
:100C3C00040C02400C0C024080B485B000AF03469B
:100C4C00FB710B46BB7113467B710023FB73FB7965
:100C5C00413B032B42D801A252F823F0790C000837
:100C6C00950C0008B10C0008CD0C0008564B1B6805
:100C7C00BA795200032101FA02F21A40BB795B00E7
:100C8C0022FA03F3FB732AE0504B1B68BA7952002B
:100C9C00032101FA02F21A40BB795B0022FA03F33A
:100CAC00FB731CE04A4B1B68BA795200032101FA12
:100CBC0002F21A40BB795B0022FA03F3FB730EE0DD
:100CCC00444B1B68BA795200032101FA02F21A4014
:100CDC00BB795B0022FA03F3FB7300E000BFFB7BE4
:100CEC00012B6AD1FB79413B032B63D801A252F84B
:100CFC0023F000BF110D00083D0D0008690D000820
:100D0C00950D0008344B1B68BA79012101FA02F2E7
:100D1C00D2431146304A0B4013602F4B1B68797934
:100D2C00BA7901FA02F211462B4A0B43136042E0E6
:100D3C002A4B1B68BA79012101FA02F2D2431146FF
:100D4C00264A0B401360254B1B687979BA7901FA56
:100D5C0002F21146214A0B4313602CE0204B1B6816
:100D6C00BA79012101FA02F2D24311461C4A0B4016
:100D7C0013601B4B1B687979BA7901FA02F21146A0
:100D8C00174A0B43136016E0164B1B68BA79012106
:100D9C0001FA02F2D2431146124A0B401360114B76
:100DAC001B687979BA7901FA02F211460D4A0B43A4
:100DBC00136000E000BF012300E000231846143745
:100DCC00BD4680BC704700BF0000024000040240DA
:100DDC0000080240000C02401400024014040240BF
:100DEC0014080240140C024080B485B000AF0346D6
:100DFC000A46FB711346BB710023FB73FB79413B25
:100E0C00032B3BD801A252F823F000BF290E000897
:100E1C00410E0008590E0008710E00081B4B1B6890
:100E2C00BA79012101FA02F21A40BB7922FA03F3D2
:100E3C00FB7324E0164B1B68BA79012101FA02F20C
:100E4C001A40BB7922FA03F3FB7318E0114B1B68B1
:100E5C00BA79012101FA02F21A40BB7922FA03F3A2
:100E6C00FB730CE00C4B1B68BA79012101FA02F2FE
:100E7C001A40BB7922FA03F3FB7300E000BFFB7B43
:100E8C0018461437BD4680BC704700BF10000240A6
:100E9C001004024010080240100C02400000000038
:0C0EAC0000000000010203040607080912
:100EB80010000020000000000024F40001FFFFFFE4
:040000050800019559
:00000001FF
