:020000040800F2
:1000000000000120050300080B030008110300088D
:1000100033030008390300085B03000800000000F8
:100020000000000000000000000000007D03000848
:100030008303000800000000890300088F03000804
:10004000AD030008AD030008AD030008AD030008D0
:10005000AD030008AD030008AD030008AD030008C0
:10006000AD030008AD030008AD030008AD030008B0
:10007000AD030008AD030008AD030008AD030008A0
:10008000AD030008AD030008AD0300080000000048
:10009000000000000000000000000000AD030008A8
:1000A000AD030008AD030008AD030008AD03000870
:1000B000AD030008AD030008AD030008AD03000860
:1000C000AD030008AD030008AD030008AD03000850
:1000D000AD030008AD030008AD03000800000000F8
:1000E000AD030008AD030008AD03000800000000E8
:1000F000000000000000000000000000AD03000848
:1001000000000000AD030008AD030008AD030008C7
:1001100000000000000000000000000000000000DF
:10012000AD030008AD030008AD030008AD030008EF
:10013000AD03000800000000000000000000000007
:10014000000000000000000000000000AD030008F7
:10015000AD030008AD030008AD030008AD030008BF
:10016000AD030008AD03000800000000000000001F
:10017000000000000000000000000000000000007F
:1001800000000000AD0300080000000000000000B7
:10019000AD03000880B596B000AF00F037F94F4BC3
:1001A0007B6524E07B6D1A1D7A651B683B647B6D63
:1001B0001A1D7A651B68FB637B6D1A1D7A651B68C7
:1001C000BB633B6C7B63FB6B3B63BB6BFB623B6B5F
:1001D000BB6207E07A6B131D7B63BB6A191DB962B2
:1001E00012681A60FA6ABB6A9A42F3D800BF7B6D44
:1001F0003B4A9342D6D33B4B3B651AE03B6D1A1DFD
:100200003A651B68BB643B6D1A1D3A651B687B64CD
:10021000BB6C7B627B6C3B627B6AFB6104E0FB69CD
:100220001A1DFA6100221A603A6AFB699A42F6D8EE
:1002300000BF3B6D2C4A9342E0D300F0F5F83A1D25
:1002400007F108031146184600F0CEF8274A284B5C
:10025000D31A9B103B610023FB6007E0244AFB6834
:1002600052F823309847FB680133FB603A69FB681A
:100270009A42F3DC1F4A204BD31A9B103B610023A8
:10028000FB6007E01C4AFB6852F823309847FB6884
:100290000133FB603A69FB689A42F3DC00BFBB683C
:1002A0007A681146184600F06BF9F864134A144B4B
:1002B000D31A9B10BB61BB697B6108E07B69013B82
:1002C0000F4A52F8233098477B69013B7B617B6979
:1002D000002BF3DC00BFF86C00F080F8B4030008DA
:1002E000CC030008CC030008DC030008DC03000892
:1002F000DC030008DC030008DC030008DC03000862
:10030000DC0300082548004700BF80B400AFFEE7CB
:100310001EF0040F0CBFEFF30880EFF30980714665
:100320001F4A104700BF80B483B000AF78603960C7
:10033000FEE780B400AFFEE71EF0040F0CBFEFF342
:100340000880EFF309807146164A104700BF80B459
:1003500083B000AF78603960FEE71EF0040F0CBF79
:10036000EFF30880EFF3098071460F4A104700BF92
:1003700080B483B000AF78603960FEE780B400AF2E
:10038000FEE780B400AFFEE780B400AFFEE780B4C4
:1003900000AF00BFBD4680BC70470000950100085B
:1003A000270300084F0300087103000880B400AF62
:0203B000FEE766
:1003B400200E00080000002010000020200E00087D
:1003C40000000010000000101000002014000020A5
:0803D400000000100000001001
:1003DC0080B582B000AF786000F03CF880B483B098
:1003EC0000AF786039607B6801221A603B68034A71
:1003FC001A6000BF0C37BD4680BC7047000000205F
:10040C0080B500AF00F02AF8024B034A9A6000BF97
:10041C0080BD00BF00ED00E00000000880B500AF1B
:10042C0000F028F800BF80BD80B400AFBFF34F8F41
:10043C0000BF064BDB6803F4E0620449044B134332
:10044C00CB60BFF34F8F00BF00BFFDE700ED00E0B6
:10045C000400FA0580B500AFFFF7E6FF80B400AFEB
:10046C00034B4FF000629A6000BFBD4680BC7047E2
:10047C0000ED00E080B487B000AF00233B610023A7
:10048C007B610223FB600023BB6002237B60344B47
:10049C009B6803F00C033B613B69082B11D03B6953
:1004AC00082B44D83B69002B03D03B69042B04D0A8
:1004BC003DE02C4B2C4A1A603DE02A4B2B4A1A602B
:1004CC0039E0274B5B689B0D03F00103BB60244BA9
:1004DC005B6803F03F037B60BB68002B0CD0234AA6
:1004EC007B68B2FBF3F31E4A52689209C2F308020E
:1004FC0002FB03F37B610BE01B4A7B68B2FBF3F35B
:10050C00174A52689209C2F3080202FB03F37B619B
:10051C00134B5B681B0C03F0030301335B00FB60A4
:10052C007A69FB68B2FBF3F30E4A136003E00D4BE0
:10053C000D4A1A6000BF0A4B9B681B0903F00F039E
:10054C000B4AD35C3B61074B1A683B6922FA03F3F5
:10055C00044A136000BF1C37BD4680BC704700BF07
:10056C0000380240080000200024F40000127A0039
:10057C00100E000880B584B002AF00F0B3F9002073
:10058C0000F0BEF900230093002301220121412039
:10059C0000F00AFA002300930023012202214120DB
:1005AC0000F002FA002300930023012203214120D2
:1005BC0000F0FAF9012300930023002204214120CA
:1005CC0000F0F2F9012300930023002205214120C1
:1005DC0000F0EAF900220121412000F03BFB00224F
:1005EC000221412000F036FB00220321412000F0C3
:1005FC0031FB6A4B1B781A460421412000F02AFB80
:10060C00674B1B781A460521412000F023FB00F0B4
:10061C00E3F80346002B28D001220121412000F0F1
:10062C0019FB0023FB710FE001220221412000F095
:10063C0011FB5C4800F0BCF800220221412000F0C4
:10064C0009FBFB790133FB71FB79002BECD0012208
:10065C000321412000F0FEFA534800F0A9F80022D3
:10066C000321412000F0F6FA92E000F0C7F80346AF
:10067C00002B0FD000220121412000F0EBFA0022C8
:10068C000221412000F0E6FA01220321412000F072
:10069C00E1FA7DE000F0CAF80346002B23D00022DB
:1006AC000121412000F0D6FA0023BB7112E0012297
:1006BC000221412000F0CEFA3A4800F079F80022ED
:1006CC000221412000F0C6FA364800F071F8BB79DF
:1006DC000133BB71BB79012BE9D9002203214120E5
:1006EC0000F0B8FA54E000F0CDF80346002B17D018
:1006FC0000220121412000F0ADFA0022022141200C
:10070C0000F0A8FA01220321412000F0A3FA2748A7
:10071C0000F04EF800220321412000F09BFA37E054
:10072C0000F0C8F80346002B23D000220121412001
:10073C0000F090FA00237B7112E00122022141208B
:10074C0000F088FA174800F033F80022022141200B
:10075C0000F080FA134800F02BF87B7901337B71A1
:10076C007B79012BE9D900220321412000F072FA98
:10077C000EE000220121412000F06CFA002202213F
:10078C00412000F067FA00220321412000F062FAB8
:10079C00002318460837BD4680BD00BF0C00002062
:1007AC000D00002020A1070080841E0040420F0095
:1007BC0080B485B000AF78600023FB6002E0FB687A
:1007CC000133FB60FA687B689A42F8D300BF00BF24
:1007DC001437BD4680BC704780B500AF00F06AF896
:1007EC000346002B05D0044B1B78002B01D00123B2
:1007FC0000E00023184680BD1100002080B500AF3A
:10080C00FFF7EAFF0346002B0AD000F03BF8034643
:10081C00002B05D0044B1B78002B01D0012300E0EA
:10082C000023184680BD00BF1200002080B582B0A6
:10083C0000AFFFF7D1FF0346002B16D000F022F8D3
:10084C000346002B11D000237B607B680A4A93423D
:10085C000DD20A4B1B78002B05D0094B1B78002BB3
:10086C0001D0012304E0002302E0002300E000BFDC
:10087C0018460837BD4680BD809698000C000020B5
:10088C000D00002080B500AFFFF7A6FF0346002B3C
:10089C000AD0FFF7B3FF0346002B05D0044B1B789F
:1008AC00002B01D0012300E00023184680BD00BFBF
:1008BC000D00002080B500AFFFF78EFF0346002B24
:1008CC000AD0FFF79BFF0346002B05D0044B1B7887
:1008DC00002B01D0012300E00023184680BD00BF8F
:1008EC000D00002080B400AF044B1B68034A43F09A
:1008FC000103136000BFBD4680BC70470038024046
:10090C0080B485B000AF0346FB71FB795B09FB73C8
:10091C00FB7903F01F03BB73FB7B032B36D801A2BF
:10092C0052F823F041090008570900086D09000826
:10093C0083090008184B1B68BA7B012101FA02F2EB
:10094C001146154A0B43136021E0144B1B68BA7B0C
:10095C00012101FA02F21146104A0B43136016E012
:10096C000F4B1B68BA7B012101FA02F211460C4AAB
:10097C000B4313600BE00B4B1B68BA7B012101FA94
:10098C0002F21146074A0B43136000E000BF00BFA0
:10099C001437BD4680BC70473038024034380240B2
:1009AC00403802404438024090B482B000AF044654
:1009BC00084611461A462346FB710346BB710B468B
:1009CC007B7113463B71FB79413B032B00F2248175
:1009DC0001A252F823F000BFF5090008810A0008B3
:1009EC000D0B0008990B00088E4B1B68BA7952004E
:1009FC00032101FA02F2D24311468A4A0B401360DA
:100A0C00884B1B687979BA79520001FA02F21146C7
:100A1C00844A0B4313607B79012B14D1824B1B68E6
:100A2C00BA79012101FA02F2D24311467E4A0B40F7
:100A3C0013607D4B1B683979BA7901FA02F21146C1
:100A4C00794A0B431360794B1B68BA795200032126
:100A5C0001FA02F2D2431146744A0B401360734BF5
:100A6C001B68397CBA7901FA02F211466F4A0B43C2
:100A7C001360D2E06E4B1B68BA795200032101FA65
:100A8C0002F2D24311466A4A0B401360684B1B6852
:100A9C007979BA79520001FA02F21146644A0B4391
:100AAC0013607B79012B14D1624B1B68BA7901213D
:100ABC0001FA02F2D24311465E4A0B4013605D4BC1
:100ACC001B683979BA7901FA02F21146594A0B437B
:100ADC001360594B1B68BA795200032101FA02F2D8
:100AEC00D2431146544A0B401360534B1B68397C5C
:100AFC00BA7901FA02F211464F4A0B4313608CE0AB
:100B0C004E4B1B68BA795200032101FA02F2D24310
:100B1C0011464A4A0B401360484B1B687979BA79E5
:100B2C00520001FA02F21146444A0B4313607B79DE
:100B3C00012B14D1424B1B68BA79012101FA02F244
:100B4C00D24311463E4A0B4013603D4B1B6839792A
:100B5C00BA7901FA02F21146394A0B431360394B48
:100B6C001B68BA795200032101FA02F2D2431146F2
:100B7C00344A0B401360334B1B68397CBA7901FA49
:100B8C0002F211462F4A0B43136046E02E4B1B68B2
:100B9C00BA795200032101FA02F2D24311462A4AD1
:100BAC000B401360284B1B687979BA79520001FA13
:100BBC0002F21146244A0B4313607B79012B14D1AA
:100BCC00224B1B68BA79012101FA02F2D243114679
:100BDC001E4A0B4013601D4B1B683979BA7901FA18
:100BEC0002F21146194A0B431360194B1B68BA7970
:100BFC005200032101FA02F2D2431146144A0B406F
:100C0C001360134B1B68397CBA7901FA02F2114656
:100C1C000F4A0B43136000E000BF00BF0837BD460E
:100C2C0090BC704700000240040002400C000240DF
:100C3C0000040240040402400C040240000802407C
:100C4C00040802400C080240000C0240040C024054
:100C5C000C0C024080B485B000AF0346FB710B4610
:100C6C00BB7113467B710023FB73FB79413B032B58
:100C7C0042D801A252F823F0950C0008B10C0008E0
:100C8C00CD0C0008E90C0008564B1B68BA795200D1
:100C9C00032101FA02F21A40BB795B0022FA03F33A
:100CAC00FB732AE0504B1B68BA795200032101FAFE
:100CBC0002F21A40BB795B0022FA03F3FB731CE0CF
:100CCC004A4B1B68BA795200032101FA02F21A400E
:100CDC00BB795B0022FA03F3FB730EE0444B1B68F9
:100CEC00BA795200032101FA02F21A40BB795B0077
:100CFC0022FA03F3FB7300E000BFFB7B012B6AD1EC
:100D0C00FB79413B032B63D801A252F823F000BFBF
:100D1C002D0D0008590D0008850D0008B10D0008B7
:100D2C00344B1B68BA79012101FA02F2D243114605
:100D3C00304A0B4013602F4B1B687979BA7901FA52
:100D4C0002F211462B4A0B43136042E02A4B1B68FC
:100D5C00BA79012101FA02F2D2431146264A0B401C
:100D6C001360254B1B687979BA7901FA02F21146A6
:100D7C00214A0B4313602CE0204B1B68BA790121EC
:100D8C0001FA02F2D24311461C4A0B4013601B4B72
:100D9C001B687979BA7901FA02F21146174A0B43AA
:100DAC00136016E0164B1B68BA79012101FA02F2A6
:100DBC00D2431146124A0B401360114B1B687979D0
:100DCC00BA7901FA02F211460D4A0B43136000E0A6
:100DDC0000BF012300E0002318461437BD4680BC39
:100DEC00704700BF000002400004024000080240AF
:100DFC00000C02401400024014040240140802408B
:100E0C00140C02400000000000000000010203046A
:040E1C0006070809B4
:100E200010000020000000000024F4000101FFFF7A
:040000050800019559
:00000001FF
